:020000040800F2
:100000009809002089010008CD120008D1110008CC
:10001000C912000811050008391900080000000085
:10002000000000000000000000000000491500086A
:100030002910000800000000B9130008A101000801
:10004000A3010008A3010008A3010008A301000800
:10005000A3010008A3010008A3010008A3010008F0
:10006000A3010008A3010008A3010008D10B0008A8
:10007000A3010008A3010008E90B0008A301000880
:10008000A30100080D0C0008A3010008A30100084B
:1000900005190008A3010008A3010008A301000836
:1000A000A3010008A3010008A3010008A3010008A0
:1000B000A3010008A3010008A3010008A301000890
:1000C000A3010008A3010008A3010008A301000880
:1000D000A3010008BD16000811170008A3010008BD
:1000E000A3010008A3010008A301000800F002F822
:1000F00000F03AF80AA090E8000C82448344AAF188
:100100000107DA4501D100F02FF8AFF2090EBAE885
:100110000F0013F0010F18BFFB1A43F0010318473B
:10012000B8300000D8300000103A24BF78C878C139
:10013000FAD8520724BF30C830C144BF04680C60ED
:10014000704700000023002400250026103A28BF35
:1001500078C1FBD8520728BF30C148BF0B60704739
:100160001FB51FBD10B510BD00F033F81146FFF7E5
:10017000F7FF01F071FC00F051F803B4FFF7F2FF54
:1001800003BC01F0DBFB0000094880470948004739
:10019000FEE7FEE7FEE7FEE7FEE7FEE7FEE7FEE737
:1001A000FEE7FEE704480549054A064B7047000094
:1001B0005D160008ED000008980300209809002053
:1001C00098050020980500207047704770477047D9
:1001D0007047754600F02CF8AE4605006946534658
:1001E00020F00700854618B020B5FFF7DBFFBDE81B
:1001F00020404FF000064FF000074FF000084FF08E
:10020000000B21F00701AC46ACE8C009ACE8C0091E
:10021000ACE8C009ACE8C0098D46704710B504468B
:10022000AFF300802046BDE81040FFF7A6BF0000F6
:10023000004870473403002000B587B0012108460C
:1002400001F0C8F801214FF4017001F0F3F87020BB
:10025000ADF8040000208DF8070001A9284800F03F
:10026000E4FE4FF4004001F0A9F8264800F062F8DF
:100270000020029001208DF80C008DF80D004FF445
:10028000602004900020059003208DF8180002A93A
:100290001C4800F091F8012000F028F90723012202
:1002A0000421184800F0B0F8072302220521154860
:1002B00000F0AAF8072303220621124800F0A4F850
:1002C0000121104800F020F801210E4800F027F825
:1002D0000C4800F0F5F800BF0A4800F063F8002869
:1002E000FAD1084800F0FCF800BF064800F050F8CA
:1002F0000028FAD10121034800F0E7F807B000BD5B
:10030000000801400024014021B1826842F001024E
:10031000826003E0826822F001028260704721B1AE
:10032000826842F48072826003E0826822F4807204
:100330008260704710B504461248844208D10121FA
:10034000401501F087F80021601501F083F817E0EF
:100350000D48844208D10121001501F07BF80021ED
:10036000201501F077F80BE00848844208D10121FC
:10037000C80301F06FF800214FF4004001F06AF863
:1003800010BD00000024014000280140003C014055
:10039000014600208A6802F004020AB1012000E050
:1003A00000207047014600208A6802F008020AB166
:1003B000012000E00020704730B5024600200023F5
:1003C00050680F4C20400D790C6844EA0524204306
:1003D000506090680B4C2040D1E902542C434D7979
:1003E00044EA450420439060D06A20F470000C7CFD
:1003F000641EE4B2234340EA0350D06230BD0000E3
:10040000FFFEF0FFFDF7F1FFF0B504460D460020BA
:100410000021092D11DDE068A5F10A0606EB46076B
:10042000072606FA07F18843A5F10A0606EB4606F9
:1004300003FA06F10843E0600CE0206905EB45078C
:10044000072606FA07F1884305EB450603FA06F18D
:1004500008432061072A0FDA606B561E06EB8607F9
:100460001F2606FA07F18843561E06EB860605FA94
:1004700006F10843606322E00D2A0FDA206BD61FD5
:1004800006EB86071F2606FA07F18843D61F06EB00
:10049000860605FA06F10843206310E0E06AA2F13F
:1004A0000D0606EB86071F2606FA07F18843A2F120
:1004B0000D0606EB860605FA06F10843E062F0BD7C
:1004C000816841F008018160704721B1826842F47F
:1004D000A002826003E0826822F4A002826070477A
:1004E000816841F0040181607047000030B1074924
:1004F000096841F40001054A116005E003490968F3
:1005000021F40001014A11607047000008240140F5
:1005100000BFFEE710B504460B48844209D1012113
:10052000480600F077FF00214FF0007000F072FFE6
:1005300008E00121880600F06DFF00214FF0806087
:1005400000F068FF10BD00000064004010B50021FD
:10055000837A012202FA03F13D4A126842F0010255
:100560003B4B1A603A4A1C3212688A43384B1C33A0
:100570001A60027BCAB9364A0C3212688A43344B7D
:100580000C331A604288C38842EA0343304A40323F
:10059000847A42F834300288838842EA03432C4A42
:1005A0004032847A02EBC4025360027B012A19D1E3
:1005B000274A0C3212680A43254B0C331A604288D2
:1005C000038842EA0343224A4032847A42F83430B4
:1005D000C288838842EA03431D4A4032847A02EB90
:1005E000C4025360C27A3AB9194A121D12688A438A
:1005F000174B1B1D1A6006E0154A121D12680A43AC
:10060000134B1B1D1A60028932B9114A1432126849
:100610008A430F4B14331A600289012A06D10C4A0F
:10062000143212680A430A4B14331A60427B012ABF
:1006300006D1074A1C3212680A43054B1C331A6064
:10064000034A126822F00102014B1A6010BD00003B
:10065000006600401AB143690B43436102E04369FD
:100660008B434361704730B5024600200023146875
:1006700024F002041460146844F00104146000E0E3
:100680005B1C546804F001041CB94FF6FF74A342CC
:10069000F6D1546804F001040CB900206CE08C79A8
:1006A000012C04D1146844F08004146003E0146841
:1006B00024F080041460CC79012C04D1146844F037
:1006C0004004146003E0146824F0400414600C7AC1
:1006D000012C04D1146844F02004146003E0146871
:1006E00024F0200414604C7A012C04D1146844F0E6
:1006F0001004146003E0146824F0100414608C7A71
:10070000012C04D1146844F00804146003E0146858
:1007100024F008041460CC7A012C04D1146844F04D
:100720000404146003E0146824F0040414608C785A
:10073000A407CD7844EA05640D7944EA05444D796F
:1007400044EA05540D886D1E2C43D461146824F0CE
:1007500001041460002300E05B1C546804F00104F1
:100760001CB14FF6FF74A342F6D1546804F00104A3
:100770000CB1002000E0012030BD00002DE9F04167
:100780008AB004460D4616461F46DDF8408001211A
:10079000480600F02FFE4FF40070ADF8240003204F
:1007A0008DF8260018208DF8270009A9344800F09C
:1007B0003CFC4FF48070ADF8240048208DF82700F1
:1007C00003208DF8260009A92D4800F02EFC0121F8
:1007D0004FF4EA1000F0B4FC2A48FFF79BFE06A88D
:1007E00000F0CAF800208DF81E008DF81F008DF86B
:1007F000200001208DF8210000208DF822008DF8C6
:1008000023008DF81A808DF81B408DF81C608DF840
:100810001D50ADF8187006A91A48FFF724FF0020F4
:100820008DF812008DF8130001208DF814000020BF
:10083000ADF80800ADF80A00ADF80C00ADF80E00F8
:10084000ADF8100001208DF8150002A8FFF77EFE1C
:10085000012202210B48FFF7FDFE14208DF8040051
:1008600001208DF8050000208DF8060001208DF88C
:10087000070001A800F05EFD00200AB0BDE8F0818D
:10088000000C01400064004010B500F5D87303EB84
:1008900001131B6803F004031372137A53B900F5B4
:1008A000D87303EB01131B6840F2FF7404EA53533F
:1008B000136009E000F5D87303EB01131B686FF0B8
:1008C000604404EAD303536000F5D87303EB0113CB
:1008D0001B6803F00203537200F5D87303EB011396
:1008E0005B6803F00F03937200F5D87303EB0113F9
:1008F0005B681B0AD37400F5D87303EB01139B6884
:10090000D37200F5D87303EB01139B681C0A1473B0
:1009100000F5D87303EB01139B681C0C547300F5AE
:10092000D87303EB01139B681B0E937300F5D87308
:1009300003EB0113DB68D37300F5D87303EB0113EA
:10094000DB681C0A147400F5D87303EB0113DB6831
:100950001C0C547400F5D87303EB0113DB681B0EF9
:10096000937421B9C36843F02003C36003E00369B3
:1009700043F02003036110BD00218171C171017238
:1009800041728172C1728170C170032101710221B3
:10099000417101210180704710B502460020936823
:1009A00003F08063B3F1806F00D110E0936803F02F
:1009B0000063B3F1006F01D1012008E0936803F0F8
:1009C0008053B3F1805F01D1022000E004200428AD
:1009D00074D002F5C07303EB00131B6803F001042D
:1009E00002F5C07303EB00131C600B7A7BB94B7AE2
:1009F0000C8843EA445302F5C07404EB00142468E5
:100A0000234302F5C07404EB0014236010E00B7A5A
:100A10004C6843EAC4034C7A234302F5C07404EBE8
:100A200000142468234302F5C07404EB001423600F
:100A30008B7A03F00F038B7202F5C07303EB001384
:100A40005B6823F00F0402F5C07303EB00135C60D6
:100A500002F5C07303EB00135B688C7A234302F545
:100A6000C07404EB001463608B7B1C064B7B44EA70
:100A700003440B7B44EA0323CC7A234302F5C0747E
:100A800004EB0014A3608B7C1C064B7C44EA0344FB
:100A90000B7C44EA0323CC7B234302F5C07404EBB4
:100AA0000014E36002F5C07303EB00131B6843F00E
:100AB000010402F5C07303EB00131C6010BD0000BD
:100AC00010B50246002321B1012907D002290FD118
:100AD00009E090681D4C00EA04030BE090681C4C90
:100AE00000EA040306E090681A4C00EA040301E0FF
:100AF000002300BF00BF184C181BA34216D007DC10
:100B000083B16FF08060184470B1022818D111E0F1
:100B1000B0F5007F10D0114C204448B1B0F5003F33
:100B20000ED10BE002230DE000230BE0002309E0CF
:100B3000002307E0012305E0012303E0012301E096
:100B4000002300BF00BFD8B210BD000003000004A6
:100B50000003000800000310000100080001FFF777
:100B6000F0B585B007460D46002402200090122003
:100B7000019000208DF808008DF809008DF80A50CA
:100B800000BF05E0395D0DF10B000155601C84B21A
:100B9000AC42F7DB69460D48FFF7FEFE064600242F
:100BA00001E0601C84B231460848FFF789FF18B99C
:100BB00040F6FF708442F4DB40F6FF70844202DBB3
:100BC000012005B0F0BD0020FBE7000000640040FC
:100BD00010B5022000F020F920B100F015FF02202E
:100BE00000F056F810BD000010B54FF4005000F0B2
:100BF00013F938B14FF4005000F04AF800210248D0
:100C000000F054F810BD00004400024010B54FF051
:100C1000007000F001F938B14FF0007000F038F8C2
:100C20000021024800F042F810BD000080000240A0
:100C300000B58BB0134800F045F8134800901348F6
:100C40000190002002905A20039000200490802000
:100C50000590400006908000079020200890000238
:100C6000099000200A906946064800F0F4F8012136
:100C7000044800F01BF801220221024800F0E2F8CB
:100C80000BB000BD080002404C240140600200206F
:100C900000F0805111B10349086001E00249486049
:100CA00070470000040402400000024021B10268C5
:100CB00042F00102026004E002684FF6FE731A403F
:100CC0000260704701684FF6FE721140016000211A
:100CD000016041608160C1604B49884208D14A4946
:100CE0000839496841F00F01474A083A51608AE0E3
:100CF00045491431884208D143490839496841F0CF
:100D0000F001414A083A51607DE03F49283188426C
:100D100008D13D490839496841F470613A4A083AB6
:100D2000516070E038493C31884208D13649083971
:100D3000496841F47041344A083A516063E03249ED
:100D40005031884208D130490839496841F470214E
:100D50002D4A083A516056E02B496431884208D147
:100D600029490839496841F47001274A083A516015
:100D700049E025497831884208D123490839496832
:100D800041F07061204A083A51603CE01F498842B6
:100D900006D1011F096841F00F01021F116032E006
:100DA0001A491431884208D11849091F096841F0CD
:100DB000F001164A121F116025E0144928318842BB
:100DC00008D11249091F096841F470610F4A121FC6
:100DD000116018E00D493C31884208D10B49091FC8
:100DE000096841F47041094A121F11600BE007497C
:100DF0005031884207D10549091F096841F4702123
:100E0000024A121F116070470800024008040240A5
:100E10000146486880B2704701460020002201F078
:100E2000805313B1054B1A6801E0054B1A6802EABA
:100E300001030BB1012000E00020704700040240D4
:100E4000000002401AB103680B43036002E003682C
:100E50008B430360704710B50022026847F6F073B9
:100E60009A430C6A8B6823430C6923434C692343E0
:100E70008C692343CC6923434C6A23438C6A234304
:100E80001A430260CB6843600B6883604B68C360A1
:100E900010BD000000B58DB02D48FFF713FF2D48A1
:100EA00001902D48029000200390802004900020A3
:100EB000059080200690002007900890202009903F
:100EC0004FF440500A9000200B9001A92048FFF7F2
:100ED000C2FF01211E48FFF7E9FE1D481438FFF745
:100EE000F1FE1C4801901D480290102003908020C4
:100EF0000490002005908020069000200790089024
:100F00002020099000020A9000200B9001A91048AF
:100F10001438FFF7A0FF012202210D481438FFF713
:100F200091FF00210A481438FFF7C0FE0E208DF80B
:100F3000300003208DF8310002208DF832000120AE
:100F40008DF833000CA800F0F5F90DB000BD0000DD
:100F50005800024004380140600000206001002079
:100F600000B58DB02C48FFF7ADFE2C4801902C4801
:100F700002900020039080200490002005908020A3
:100F80000690002007900890202009904FF44050D0
:100F90000A9000200B9001A91F48FFF75CFF012178
:100FA0001D48FFF783FE1C481430FFF78BFE1B48DB
:100FB00001901C4802901020039080200490002093
:100FC000059080200690002007900890202009902E
:100FD00000020A9000200B9001A90F481430FFF77F
:100FE0003AFF012202210C481430FFF72BFF0021A9
:100FF00009481430FFF75AFE11208DF83000032005
:101000008DF8310001208DF832008DF833000CA8E6
:1010100000F090F90DB000BD6C00024004440040A7
:10102000E0000020E001002070472DE9F041024679
:1010300000250026002000230024002791F803C08B
:101040000CF00F0591F803C00CF0100CBCF1000F70
:1010500003D091F802C04CEA050591F800C0BCF13C
:10106000000F31D0146800202BE04FF0010C0CFA77
:1010700000F3B1F800C00CEA03069E4220D18300C1
:101080004FF00F0C0CFA03F7BC4305FA03FC4CEAD3
:10109000040491F803C0BCF1280F06D14FF0010CF5
:1010A0000CFA00FCC2F814C00AE091F803C0BCF1CD
:1010B000480F05D14FF0010C0CFA00FCC2F810C02B
:1010C000401C0828D1D31460B1F800C0BCF1FF0F58
:1010D00034DD546800202EE000F1080C4FF00108C8
:1010E00008FA0CF3B1F800C00CEA03069E4221D1C5
:1010F00083004FF00F0C0CFA03F7BC4305FA03FC16
:101100004CEA040491F803C0BCF1280F05D100F1AA
:10111000080C08FA0CF8C2F8148091F803C0BCF16E
:10112000480F07D100F1080C4FF0010808FA0CF83D
:10113000C2F81080401C0828CED35460BDE8F0816E
:10114000F0B50A46002300240021002500F00046E7
:10115000B6F1004F02D11D4EF16901E01B4E7168DE
:10116000C0F3034583B200F44016B6F5401F08D122
:1011700021F07061154E766826F07066134F7E6020
:1011800012E000F48016B6F5801F06D1032606FA99
:1011900005F4A14341F0706106E0460D360103FA03
:1011A00006F6B14341F0706122B1460D360103FAF3
:1011B00006F6314300F00046B6F1004F02D1034E6F
:1011C000F16101E0014E7160F0BD000000000140DE
:1011D00000BFFEE74CF6CC400149086070470000B4
:1011E0000030004010B500F013F810BD70B5054692
:1011F0000C4645F2555000F01FF8284600F010F854
:10120000204600F013F800F003F8FFF7E3FF70BD8D
:101210004AF6AA20014908607047000000300040EB
:101220000149486070470000003000400149886073
:10123000704700000030004001490860704700001E
:101240000030004008B50121092000F0F3F8012129
:101250001948FFF775FF0121102000F0EBF84FF45B
:101260008060ADF8000010208DF8030003208DF899
:10127000020069461148FFF7D8FE002010490860B7
:101280004FF40060ADF8000014208DF80300032037
:101290008DF8020069460B48FFF7C7FE0820ADF83D
:1012A000000048208DF8030003208DF802006946F5
:1012B0000448FFF7BAFE08BD00023000000C0140F0
:1012C000A88121420008014000BFFEE7704708B531
:1012D0004FF4A06000F066F825208DF80000032090
:1012E0008DF801008DF8020001208DF8030068469A
:1012F00000F020F826208DF8000003208DF8010072
:1013000004208DF8020001208DF80300684600F0EB
:1013100011F80B208DF8000001208DF8010000204D
:101320008DF8020001208DF80300684600F002F8F5
:1013300008BD000070B5002100230F22C47804B35B
:10134000154C246804F4E064C4F5E064210AC1F19A
:101350000403CA40447804FA03F18478144021431A
:1013600009010E4C0678A155047804F01F050124EC
:10137000AC4005786D11AD0005F1E025C5F80041E0
:1013800009E0047804F01F050124AC40044D067800
:10139000761145F8264070BD0CED00E000E400E059
:1013A00080E100E002490143024A116070470000F9
:1013B0000000FA050CED00E0704700000146002037
:1013C000034A506820F440400843506070470000D2
:1013D0000010024029B1064A52690243044B5A6187
:1013E00004E0034A52698243014B5A61704700008E
:1013F0000010024029B1064AD2690243044BDA6167
:1014000004E0034AD2698243014BDA61704700006D
:101410000010024029B1064A12690243044B1A61C6
:1014200004E0034A12698243014B1A6170470000CD
:101430000010024029B1064A92690243044B9A61A6
:1014400004E0034A92698243014B9A6170470000AD
:101450000010024029B1064AD2680243044BDA6008
:1014600004E0034AD2688243014BDA60704700000F
:101470000010024030B500210022002400232D4D31
:101480006D6805F00C0121B1042905D0082923D18C
:1014900005E0294D056022E0274D05601FE0254D40
:1014A0006D6805F47012234D6D6805F480340225D3
:1014B00005EB92421CB9214D554305600BE01D4DD3
:1014C0006D6805F400351DB11C4D5543056002E003
:1014D000194D5543056002E0174D056000BF00BF80
:1014E000144D6D6805F0F0010909154D6B5C056838
:1014F000DD4045600F4D6D6805F4E061090A104D4F
:101500006B5C4568DD4085600A4D6D6805F460518F
:10151000C90A0B4D6B5C4568DD40C560054D6D68C3
:1015200005F44041890B074D6B5CC568B5FBF3F5CD
:10153000056130BD0010024000127A0000093D0034
:101540001F0000202F000020704710B500F002F8A7
:1015500010BD00000CB500200190009033480068D9
:1015600040F480303149086000BF3048006800F422
:10157000003000900198401C0190009818B9019823
:10158000B0F5A06FF1D12948006800F4003010B127
:101590000120009001E0002000900098012843D134
:1015A0002348006840F010002149086008460068A0
:1015B00020F0030008600846006840F00200086060
:1015C0001A4840681949486008464068486008461B
:1015D000406840F4806048600846406820F47C1011
:1015E00048600846406840F4E810486008460068D3
:1015F00040F08070086000BF0C48006800F0007088
:101600000028F9D00948406820F0030007494860E5
:101610000846406840F00200486000BF0348406848
:1016200000F00C000828F9D10CBD000000100240A9
:1016300000200240042808D14FF0E021096941F060
:1016400004014FF0E022116107E04FF0E021096949
:1016500021F004014FF0E0221161704710B51348EA
:10166000006840F0010011490860084640681049D0
:1016700008400E494860084600680E4908400B497A
:1016800008600846006820F480200860084640682A
:1016900020F4FE0048604FF41F008860FFF755FFFC
:1016A0004FF000600449086010BD000000100240C7
:1016B0000000FFF8FFFFF6FE08ED00E010B540F275
:1016C0002441104800F063F8D0B100210E48FFF724
:1016D000EDFA0C4800880D4908800A48001D008872
:1016E00008800948FFF794FBC0F180000749088093
:1016F000802005495839C86501210348FFF7D6FA0B
:1017000010BD000000380140580002405C0000207D
:1017100010B540F22441104800F039F8D0B1002152
:101720000E48FFF7C3FA0C4800880D4908800A48A4
:10173000001D008808800948FFF76AFBC0F180009F
:1017400007490880802005496C3908670121034852
:10175000FFF7ACFA10BD0000004400406C000240EE
:101760005E00002021B1828942F40052828104E0AF
:1017700082894DF6FF731A40828170471AB1838ABD
:101780000B43838202E0838A8B438382704770B568
:101790000246002400230025002040F66A16B142CC
:1017A00000D100BFC1F3421501F01F03012606FA64
:1017B00003F3012D02D19689334006E0022D02D1B8
:1017C000168A334001E0968A33400C12012606FA4D
:1017D00004F41688344013B10CB1012000E000205D
:1017E00070BDF0B50346002400260025002040F619
:1017F0006A17B94200D100BF1846C1F3421401F084
:101800001F06012707FA06F5012C01D10C3004E070
:10181000022C01D1103000E014301AB107682F43B8
:10182000076002E00768AF430760F0BD2DE9F047AD
:1018300086B005460E460024A24600BFA1460027FA
:10184000B08900B100BF2F462C8A4CF6FF700440CF
:10185000F08804432C82AC894EF6F3100440B08823
:1018600031890843718908430443AC81AC8A4FF63F
:10187000FF400440B0890443AC8201A8FFF7FAFDA1
:101880001F48874202D1DDF810A001E0DDF80CA06E
:10189000A88900F4004040B10AEBCA0000EB0A102E
:1018A00031684900B0FBF1F807E00AEBCA0000EB31
:1018B0000A1031688900B0FBF1F86420B8FBF0F041
:1018C00004012009642101FB1089A88900F400406B
:1018D00040B1322000EBC900B0FBF1F000F007008E
:1018E000044308E0322000EB09106421B0FBF1F062
:1018F00000F00F0004432C8106B0BDE8F087000023
:101900000038014010B5094A00210948FEF7BCFF24
:1019100006480068102807D10448807B552803D169
:1019200003210448FFF71CF910BD0000200300202C
:10193000006400401B00002000BFFEE7014600BF1E
:101940007047000010B50948C07801280DD108483B
:101950000078084908700648407848700448807844
:10196000887004210348FFF7FBF810BD1400002025
:10197000600100201B00002010B56FF00400FFF78D
:1019800059FE0A4800680A49B0FBF1F0094908709D
:101990000846007800EB4001C1EBC0104FF6FF7124
:1019A00001EAC0000449088010BD000000000020CA
:1019B00000127A0034000020360000200146114A4F
:1019C00012884A434FF0E0235A6100229A611A4676
:1019D000126942F001021A6100BF4FF0E022106963
:1019E00000F001021AB100F48032002AF5D04FF065
:1019F000E022126922F001024FF0E0231A61002276
:101A00009A617047360000202DE9F041002600243D
:101A100019E0002509E005EB45000D4901EB400008
:101A200030F814000644681CC5B21E2DF3DB1E20DE
:101A300096FBF0F7384601F00FFA064941F824000A
:101A40000026601CC4B2032CE3DBBDE8F08100007B
:101A5000600200201403002008B50024FFF78CFF6B
:101A6000FFF735FC4FF4165000F04CF84FF4E1301E
:101A700000F0A4F8FFF70EFAFFF772FAFFF7D8F8B4
:101A8000FEF7DAFBFFF7DEFB0120194908604FF48F
:101A9000FA70FFF793FF00201649C1F8A80140F241
:101AA00071210420FFF7A2FB002004230822072154
:101AB0000090FEF763FE04210F48FFF751F8002065
:101AC0000D49C87013E000F0CDF8FFF73BFF601C34
:101AD00084B2322C08D1FFF785FB08480068C04368
:101AE0000749C1F8AC0100240A20FFF767FFEAE7C5
:101AF000A8812142008021421B000020AC0121422C
:101B00000000214210B586B0044601210846FFF7C7
:101B100061FC012144F20400FFF78CFC4FF40070DB
:101B2000ADF8140003208DF8160018208DF817006A
:101B300005A92048FFF779FA4FF48060ADF814004A
:101B400004208DF8170005A91A48FFF76EFA0194D2
:101B50000020ADF80800ADF80A00ADF80C00ADF8B3
:101B600010000C20ADF80E0001A91348FFF75EFE2F
:101B7000002240F226611048FFF733FE002240F2B7
:101B800025510D48FFF72DFE012240F224410A485D
:101B9000FFF727FE012240210748FFF7EFFD012252
:101BA00080210548FFF7EAFD01210348FFF7DAFD30
:101BB00006B010BD000801400038014010B586B0E5
:101BC000044601210846FFF705FC01214804FFF700
:101BD00011FC0420ADF8140003208DF81600182025
:101BE0008DF8170005A91D48FFF71FFA0820ADF86A
:101BF000140004208DF8170005A91848FFF715FAFE
:101C000001940020ADF80800ADF80A00ADF80C0012
:101C1000ADF810000C20ADF80E0001A91048FFF738
:101C200005FE002240F226610D48FFF7DAFD002292
:101C300040F225510A48FFF7D4FD012240F2244129
:101C40000748FFF7CEFD012240210548FFF796FD2A
:101C500001210348FFF786FD06B010BD00080140D2
:101C6000004400402DE9FF5FFD4CDFF8F893FE498A
:101C7000086800F041FF07464FF06632FB4B00F06A
:101C800047FD0022FA4BCDE9020100F0BBFB0546FF
:101C90000022F84B00F03CFD824600F0D9FAF649EC
:101CA0000860F149486800F027FF82464FF066322D
:101CB000EE4B00F02DFD0022ED4BCDE9020100F0CE
:101CC000A1FB07460022EB4B00F022FD054600F089
:101CD000BFFAEA490860E449886800F00DFF4FF058
:101CE0006632E24BCDE9020100F012FD0746002208
:101CF000DF4B00F087FB05460022DE4B00F008FDBD
:101D0000824600F0A5FADE490860DE480068DE4938
:101D10008870DE480168DA48006801F049F813D19C
:101D2000DB480168D548006801F042F80CD1D94879
:101D30000168D148006801F03BF805D1D2488078AD
:101D4000D549098888427CD0CD480068CF490860D1
:101D5000CA480068CE490860C7480068CD49086095
:101D6000C9488078CC4908800120CC49C8704946D0
:101D7000C648006801F088F835D22146C44800689A
:101D800001F082F92FD20520BF490870204600F0EB
:101D9000B3FE07460022C24B00F0B8FDCDE90001BA
:101DA0002146BB48006801F0A1F9074600F0A4FEF7
:101DB0000546DDE9002300F025FB82460022AD4BFD
:101DC00000F0A6FCCDE9020100F074FCAE494870B9
:101DD00008464078642802DC0846407800E0642029
:101DE000A949487021E2AF49A848006801F04CF9C0
:101DF00037D22146A648006801F046F931D20620C4
:101E0000A1490870204600F077FE07460022A64B45
:101E100000F07CFDCDE9000121469D48006801F0FD
:101E200065F9074600F068FE8246DDE9002300F010
:101E3000E9FA054600228F4B00F06AFCCDE9020169
:101E400000E0EFE100F036FC8F494870084640782A
:101E5000642802DC0846407800E064208A49487023
:101E6000E3E149468948006801F00EF836D2494658
:101E70008748006801F008F830D2072082490870CE
:101E8000484600F039FE05460022884B00F04AFD26
:101E9000074688467E480168484601F027F905460E
:101EA00000F02AFE3A464346CDE9000100F0AAFAC6
:101EB0000022704BCDE9020100F02AFC824600F0BE
:101EC000F9FB7149487008464078642802DC0846EE
:101ED000407800E064206C494870A6E121466B48D8
:101EE000006801F0D1F836D249466948006800F030
:101EF000CBFF30D2082064490870484600F0FCFD52
:101F000000226A4BCDE9000100F00CFD074688462F
:101F10005F480168484601F0E9F8019000F0ECFDE7
:101F20003A464346CDE9020100F06CFA054600222C
:101F3000504B00F0EDFB824600F0BCFB524948706C
:101F400008464078642802DC0846407800E06420B7
:101F50004D49487069E149464C48006800F094FFDB
:101F60002FD2032048490870484600F0C5FD0546B9
:101F700000224F4B00F0D6FCCDE902014348016836
:101F8000484601F0B3F8054600F0B6FDCDE9000182
:101F9000DDE9022300F036FA07460022354B00F057
:101FA000B7FB824600F086FB374948700846407808
:101FB000642802DC0846407800E06420324948701A
:101FC00033E121463148006801F05EF824D2042054
:101FD0002D4908702146374801F088F80746214608
:101FE0002A48006801F082F88046394600F01EFE5B
:101FF0000646314900F07CFF054600F00DFF2249FE
:10200000487008464078642802DC0846407800E0C2
:1020100064201D49487008E121461D48006801F010
:1020200033F855D20120184908702146234801F0A1
:102030005DF8074621461648006801F057F88046CB
:10204000394600F0F3FD06461B4900F051FF0546F6
:1020500000F0E2FE0C4948700846407864282FE002
:10206000000011430000D2421403002066660A40BB
:102070000000B0400000594048000020440000200B
:10208000400000200C012142600100204C00002093
:1020900050000020540000205800002014000020B0
:1020A00000A06840000002430080674000804B4071
:1020B00000003B4000005F430000C8420000454371
:1020C00002DC0846407800E0642059494870ACE0E2
:1020D00049465848006800F0D7FE24D202205449EF
:1020E00008705549484601F001F807465148016813
:1020F000484600F0FBFF8046394600F097FD064653
:102100004E4900F0F5FE054600F086FE484948704D
:1021100008464078642802DC0846407800E06420E5
:102120004349487081E049464548006800F0ACFEEC
:1021300024D209203E4908703F49484600F0D6FFA6
:1021400007463F480168484600F0D0FF80463946C0
:1021500000F06CFD0646394900F0CAFE054600F065
:102160005BFE3349487008464078642802DC084624
:10217000407800E064202E49487056E021463048FF
:10218000006800F081FF24D20A2029490870214606
:102190002C4800F0ABFF074621462948006800F0B4
:1021A000A5FF8046394600F041FD0646234900F070
:1021B0009FFE054600F030FE1D49487008464078F5
:1021C000642802DC0846407800E064201849487022
:1021D0002BE049461C48006800F056FF05D2214616
:1021E0001948006800F050FE17D3494611480068AE
:1021F00000F04AFF05D221460E48006800F044FE78
:102200000BD349460E48006800F03EFF0DD2214630
:102210000B48006800F038FE07D20020044908701F
:10222000487002E000200949C870BDE8FF9F000027
:1022300060010020500000200000C8410000C8429A
:1022400054000020000061434C00002014000020D6
:1022500021F00042A2F16052B2F5801F01F000436C
:1022600028BFD2F17F6C0BD95FEA001C43EAC2029F
:1022700042EB507018BF704728BF20F00100704734
:10228000B2F5801FBCBF184670474FEA410C1CF5E1
:10229000001F02D2084600F0F2BE70B500F0E2FA6C
:1022A00000000089FFF7F6BF4FF00040A0F5800066
:1022B0007047000010B591EA030F48BF83F0004358
:1022C00000F13883841A71EB030C05D2121943EB29
:1022D0000C03001B61EB0C01DFF824E14FEA115401
:1022E000A4EB135C1EEA430F18BF9EEA445F73D051
:1022F00023EA0E03DCF1200E21EA045143F480139B
:1023000032D322FA0CFE10EB0E0023FA0CFE41EB46
:102310000E01CCF1200E03FA0EFE10EB0E0051F16F
:102320000001B1F5801FCCF1200E32D201EB045137
:1023300012FA0EF2BDE8104058BF7047401C38BF7B
:102340005FEA420218BF7047002814BF20F0010066
:1023500041F100014FEA410313F5001F38BF7047F8
:10236000A1F1C04100F0CCBA012A43EB0302ACF169
:10237000200CDCF11F0E32BF4FF0000E23FA0CF3DD
:1023800010EB030041EB0451B4EB115FD0D0A1EB93
:10239000045101F5801149085FEA300001EB045156
:1023A0000ED350F1000038BF12FA0EFE08D1BDE87E
:1023B0001040C9E7401C38BF5FEA4202CAD1C3E7F8
:1023C000BDE810404FEA410313F5001F38BF7047C6
:1023D000A1F1C04100F094BA9EEA445F08D011EA2E
:1023E0005E0FBDE8104004BF01F0004100207047BF
:1023F000BDE8104070B500F035FA00BF64FBBE3E8A
:102400000000E0FF2DE9C04130B4DFF8A0C23CEA93
:10241000111418BF3CEA131400F0EC8081EA0305A4
:102420001CEA111444EAD57418BF1CEA131500F015
:10243000C780A4EB05044FF0004545EAC12145EAF9
:10244000C32341EA505143EA525304F17F74994245
:1024500004F500344FEAC0204FEAC22208BF904280
:1024600000F09C804FEA13650FF24016765D4FEA4C
:10247000134506FB05F7C7F1807706FB07F74FEA20
:10248000D737A7FB03687642C8F58038A7FB06CE8E
:1024900038BFA8F1010807FB08E64FF0000EA6FBC5
:1024A000028CE6FB03CEDCF1000CCEF1004E38BF0F
:1024B000AEF1010EA6FB0C584FF000074FF00005DF
:1024C000E6FB0E87A1FB08C6A0FB07CE16EB0E06A7
:1024D00045F10005E1FB076515F1E04E7EBFA4F56F
:1024E00080345FEA46066D4116F1800745F100052C
:1024F0004FEA17274FEA066647EA0567A6F1DE4668
:10250000B6F1805F4FEA15251FD9384624F0010C3B
:1025100005EBC471BCF1FE6F01EB0C1102D8F0BCED
:10252000BDE8008124425CBF01F5801E9EEAC47FA5
:1025300002D4F0BCBDE80081244238D4F0BCA1F143
:10254000C041BDE8004100F0DBB94FEAD22242EAC7
:1025500043524FEAD323A7FB02864FEAD02040EA3A
:10256000415007FB03661EEA0E0F4FEAD12105FB1F
:10257000026658BFA6EB0056B6EB00564FEA520E65
:102580004EEAC37E18EB0E0E56EB530EBDD518EB7C
:1025900002085E417F1C55F10005B6E74FF4801537
:1025A0004FF000074FF000064FF00008ADE7F0BC19
:1025B0004FF0000001F1C04101F00041BDE8008191
:1025C00011EA0C1F0CEA131500D00CE013EA0C1FE3
:1025D00000F025804FF00000F0BC81EA030101F01B
:1025E0000041BDE80081F0BCBDE8004181EA030183
:1025F00000F086B9F0BCBDE8004170B500F032F9DA
:10260000097EFC3E00F007B881EA03014FF00000AC
:1026100001F00041704781EA030100F071B9F0BC9C
:10262000BDE800414FF0000021497047FFFDFBF974
:10263000F7F5F4F2F0EEEDEBE9E8E6E4E3E1E0DEF5
:10264000DDDBDAD8D7D5D4D3D1D0CFCDCCCBCAC867
:10265000C7C6C5C4C2C1C0BFBEBDBCBBBAB9B8B78E
:10266000B6B5B4B3B2B1B0AFAEADACABAAA9A8A881
:10267000A7A6A5A4A3A3A2A1A09F9F9E9D9C9C9B4F
:102680009A999998979796959594939392919190FA
:102690008F8F8E8E8D8C8C8B8B8A8989888887878B
:1026A0008685858484838382828181800000FF0700
:1026B0000000F87F4FEA1153A3F58063D3F11E03A6
:1026C000A8BFD3F1200C08DB4FF0004242EAC12240
:1026D00052EA505232FA03F0704709420BD4102BE1
:1026E000C4BF0020704703F5787CBCF1FF3F05D0E4
:1026F0004FF0FF3070474FF00000704770B500F0AA
:10270000B1F800BF4992248000207047F0E7000034
:10271000DFF848C170B51CEA111E1EBF1CEA131574
:102720009EEA0C0F95EA0C0F00F06F8081EA03041B
:1027300023EA4C134EEAD47E21EA4C1141F4801175
:1027400043F48013AE44A1FB024CA0FB0365AEF141
:102750007F7E361955EB0C05A1FB034C4CF10003B1
:10276000A0FB021C16EB0C06654153F10003094265
:1027700018BF46F0010613F4007F0BD14FEA033176
:102780004FEA0530340341EA155140EA16506FF024
:1027900003020AE04FEAC3214FEAC520F40241EAEE
:1027A000555140EA56506FF0020202EB2E4201EB07
:1027B000025585EACE710AD05FEA440C18BF24F0B6
:1027C000004450F1000041F1000120EAD47040F2D1
:1027D000FE7C624500D270BDA84214BF4FF0804419
:1027E0004FF04044002E08BF0024BEF1806FA8BF08
:1027F000A1F1C041BDE8704080F282804FF000003E
:1028000001F1C04101F0004170479EEA0C0F0CEA53
:10281000131518BF95EA0C0F06D04FF0000081EA9F
:10282000030E0EF0004170BD00F01CF88900013E5F
:1028300000F007B800F009B84FEA430C5FEA5C5CAF
:1028400008D081EA030100F05BB84FEA410C5FEA6F
:102850005C5CF6D14FF00000014970470000FF07B3
:102860000000F87F0EF1020E2EF0030E5EF8046BEE
:10287000364205D4012A43EB030515F5001F12D893
:10288000012841EB010C1CF5001F0CD80ED14FEABA
:10289000D17C15F5001F0CEB4C0C0CF1020C08BFA1
:1028A0004CEBD37C04E04FF0080C01E04FEAD37C02
:1028B0000CEB4C0526FA05F606F00706B6F1040CFB
:1028C00006D20EEB860CBDE870404CF0010C604760
:1028D000DFE80CF0090B02024FF000414FF000005E
:1028E000A1F5002170BD19461046012851EB0104E5
:1028F00018BFD4F5001484BF002001F0004170BD62
:102900000808A0F500114FEA3101704791EA030F62
:1029100010B581F000413FF5D5AC83F0004300F0E5
:1029200009B8000010B591EA030F48BF83F00043D7
:102930003FF5C8AC841A71EB030C07D212198CF066
:10294000004C43EB0C03001B61EB0C01DFF8A4E12E
:102950004FEA1154A4EB135C1EEA430F18BF9EEA22
:10296000445F00F0B08023EA6E03524221EA045132
:10297000C3EB6E0338BF5B1EDCF1200E25D322FAB9
:102980000CFE10EB0E0043FA0CFE41EB0E01CCF1F5
:10299000200E03FA0EFE10EB0E0051F10001CCF1F7
:1029A000200E29D412FA0EF201EB0451BDE81040BA
:1029B00058BF7047401C1CBFB2F1004F7047002841
:1029C0000CBF491C20F00100704712EB020E43EBD4
:1029D000030218BF4FF0010E4EEA4202ACF1200C88
:1029E000DCF11E0E54D943FA0CFE10EB0E0051F12F
:1029F000FF31CCF11E0ED5D50EF1010E12FA0EFEEE
:102A0000404141EB010101EB445C5FEA5C5C10D9A1
:102A100010EBDE7001EB045138BFBEF1004FBDE892
:102A2000104018BF704700280CBF491C20F001005F
:102A3000704730D24FEAD42C11F5001124F4006411
:102A40001BD0B1FA81F20B3AA41AA41ED2F12003D2
:102A5000914030FA03F31943904001EBCC71002C04
:102A600001EB0451BDE81040A8BF704701F1C0411F
:102A70004FF0000001F000417047B0FA80F310FA07
:102A800003F100D110BDE41A173C4805C90AE4E778
:102A900001EB045110BD491001EB0451BDE8104099
:102AA0004FEA300002E04FF0000170474A0008BFD3
:102AB0000042F8D0B2F5001F28BF704701F0004176
:102AC0004FF0000070479EEA445F07D011EA5E0FA6
:102AD000BDE8104004BF002100207047BDE8104051
:102AE00070B5FFF7BFFE00BF40DFF63E83F0004148
:102AF000104670470000E0FF43004FEAD30C4FEA56
:102B00003C0C43401FBF40070CF1605113F0FE4FD7
:102B100070471CF0006F03D100200CF0004170479B
:102B20000CF0004343EA507010B540EACC0000F0CE
:102B300060FA00BF000000924FEA0001FFF7E0BE1C
:102B40004FF000414FF00000A1F500217047000058
:102B500090EA010F48BF81F0004100F1CE82421A95
:102B60003CBF801A89184FEAD0524FF07F4C1CEAC4
:102B7000410FA2EBD15318BF9CEA026F00F03B80DB
:102B80004FF0004C4CEA00204CEA012121FA03FCF2
:102B900010EB0C0C1ED202F1FF325FEA1C2040EB5E
:102BA000C25038BF70471CF07F0F4FEA400C18BF6F
:102BB000BCF17F4F38BF7047C3F12003994008BF75
:102BC00020F00100BCF17F4F38BF7047A0F1C0403A
:102BD00000F055BA4FEA3C00000A40EBC25028BF53
:102BE0001CF0FF0F4FEA400CE6D018BFBCF17F4F3E
:102BF00038BF7047EAE79CEA026F05D010EA5C0F25
:102C000008BF00F00040704710B500F0F2F900BFB7
:102C100064FBBE3E401058BFC0F14040491058BF51
:102C2000C1F140418142EFF3008070474FF47F0CC7
:102C30001CEAD0121EBF1CEAD11392EA0C0F93EAD1
:102C40000C0F00F0858090EA010F48BF42F48072BB
:102C500040F4000C41F400002CF07F4120F07F4054
:102C600000B58142A2EB03020FF2081CACEB504E00
:102C7000C0F100009EF800E04FEA4E0E00FB0EFC93
:102C800038BF49004FEA2C1C02F5FA020CFB0EF388
:102C90004FEACE1E4FEA112C4FEAC1210EEB635EC4
:102CA00042EB22420EFB0CFC4FEA1C5300FB0311CB
:102CB0004FEA112C4FEA01310EFB0CFC4FEADC4CC1
:102CC00000FB0C11C14228BF09184CEB03335DF81F
:102CD00004EB10EB410143EBC250B2F57C0F38BF5F
:102CE000704729D512F0F00F1CBF00F1C04000F072
:102CF00000407047008182838485868788898B8C19
:102D00008D8E8F919293959697999A9C9D9FA0A254
:102D1000A3A5A7A8AAACAEB0B2B3B5B7B9BCBEC0A4
:102D2000C2C5C7C9CCCED1D4D7D9DCDFE2E6E9EC45
:102D3000F0F3F7FAFE0000004FEA400C0CF1807C43
:102D4000BCF17E4F28BF7047B0F1C04000F097B98A
:102D500090EA010F0CEAD11348BF42F48072624539
:102D600038BF634507D213F47F0F16D080EA010005
:102D700000F00040704710B500F03BF9097EFC3EC2
:102D800000F005B880EA010000F00040704780EADA
:102D9000010000F0004000F072B912F47F0F04BF90
:102DA0000248704780EA010000F069B90000C07F66
:102DB00050EA010C00F113801CF5000F58BFBCF560
:102DC000000F01D48842704707D710F5000F58BF95
:102DD00011F5000F15D488427047894270471CF5E1
:102DE000000F04D5BCF5000FF7D5814270474FF0B6
:102DF000807C1CEB400F38BF1CEB410F01D281429D
:102E0000704710B500F0F5F8922449004FF00050DB
:102E10004FF08051FFF7FEBEC10DD1F19E0206DBDF
:102E20004FEA002343F0004323FA02F070470042C8
:102E300007D54FEA4001B1F1FE4F02D24FF000003A
:102E4000704710B500F0D5F84992248000207047F3
:102E50006FEA20007047000010F0004148BF404278
:102E6000B0FA80F310FA03F2C3F19D030BD051EADC
:102E7000C35101EB1220530638BF704700F1010027
:102E800008BF20F00100704750EA010C00F11380E8
:102E90001CF5000F58BFBCF5000F01D488427047E5
:102EA00007D710F5000F58BF11F5000F15D4884251
:102EB0007047894270471CF5000F04D5BCF5000F20
:102EC000F7D5814270474FF0807C1CEB400F38BF34
:102ED0001CEB410F01D28142704710B500F089F818
:102EE000922449004FF000504FF08051FFF792BEFE
:102EF0004FF47F0C1CEAD0121EBF1CEAD11392EAD9
:102F00000C0F93EA0C0F00F0478090EA010F48BFC6
:102F100042F480724FF0004C4CEA00204CEA012150
:102F200002EB0302A0FB0113A2F50002002918BF67
:102F300043F001035B0028BF4FEA330342EB224218
:102F40005FEA132C4CEBC2502EBFBCEB436FB2F5C3
:102F50007C0F70474FEA036CBCF1004F08BF20F0B4
:102F60000100B2F57C0F38BF70470BD582F0FF022D
:102F700012F5803FC8BF704700F1C040D8BF00F0D5
:102F80000040704700F5000C5FEA4C0C48BF7047EA
:102F9000B0F1C04000F073B890EA010F0CEAD11311
:102FA00048BF42F48072624538BF634504D280EA6C
:102FB000010000F00040704710B500F01AF800BFA3
:102FC0008900013E00F007B800F009B85FEA410C43
:102FD0005FEA1C6C08D080EA010000F050B85FEA9C
:102FE000400C5FEA1C6CF6D14FF00040A0F5800069
:102FF00070470EF1020E2EF0030E5EF8044B2442D1
:1030000004D44FEA4102B2F17F4F11D84FEA400396
:10301000B3F17F4F0CD80ED14FEAD07CB2F17F4F85
:103020000CEB4C0C0CF1020C08BF4CEBD17C04E017
:103030004FF0080C01E04FEAD17C0CEB4C0324FA72
:1030400003F404F00704B4F1040C06D20EEB840C74
:10305000BDE810404CF0010C6047DFE80CF00708B9
:1030600002024FF00040A0F5800010BD084642006B
:1030700018BFD2F1807288BF00F0004010BDFF2160
:1030800041EAD050C005704751EA000C00F11380AE
:103090001CF5000F58BFBCF5000F01D481427047EA
:1030A00007D711F5000F58BF10F5000F15D4814256
:1030B0007047894270471CF5000F04D5BCF5000F1E
:1030C000F7D5884270474FF0807C1CEB410F38BF2A
:1030D0001CEB400F01D28842704780EA010081EA70
:1030E000000180EA0100FFF7F8BE000090EA010F3E
:1030F00048BF81F000413FF532AD421A04D882F05A
:103100000042A0EB020011444FEAD0524FF07F4C36
:103110001CEA410FA2EBD15318BF9CEA026F4AD0C0
:103120004FF0004C4CEA00204CEA012121FA03FC4C
:10313000B0EB0C0C0FD412F0FE0F36D05FEA4C004F
:103140001DD5001240EBC25038BF70471CF03F0F36
:1031500018BF70470BE0A2F101025FEA1C2040EBB0
:10316000C25038BF70471CF07F0F18BF7047C3F1C3
:103170002003994014BF401E20F0010070478008D2
:103180004FEA122308BF7047B0FA80FCA2EB0C0292
:10319000CCF1280C60FA0CF093EA122F04BF00EB7C
:1031A000C25070474FEAC3707047130A5FEADC10E1
:1031B00008BF7047F6E79CEA026F04D010EA5C0F84
:1031C00008BF0020704710B5FFF713FF40DFF63E41
:1031D00081F0004070470000F83100080000002036
:1031E000600000002801000858320008600000203C
:1031F000380900004401000800A24A040000000051
:103200000000000001020304060708090000000096
:1032100000FFFFFFFFFF5500000000010203040153
:103220000203040607080902040608000000000063
:10323000000000000000000000000000000000008E
:10324000000000000000000000000000000000007E
:08325000000000000000000076
:04000005080000ED02
:00000001FF
